{
  "contractName": "newCrowdFund",
  "abi": [
    {
      "constant": true,
      "inputs": [],
      "name": "deadline",
      "outputs": [
        {
          "name": "",
          "type": "uint256"
        }
      ],
      "payable": false,
      "stateMutability": "view",
      "type": "function"
    },
    {
      "constant": true,
      "inputs": [],
      "name": "beneficiary",
      "outputs": [
        {
          "name": "",
          "type": "address"
        }
      ],
      "payable": false,
      "stateMutability": "view",
      "type": "function"
    },
    {
      "constant": true,
      "inputs": [],
      "name": "tokenReward",
      "outputs": [
        {
          "name": "",
          "type": "address"
        }
      ],
      "payable": false,
      "stateMutability": "view",
      "type": "function"
    },
    {
      "constant": true,
      "inputs": [
        {
          "name": "",
          "type": "address"
        }
      ],
      "name": "balanceOf",
      "outputs": [
        {
          "name": "",
          "type": "uint256"
        }
      ],
      "payable": false,
      "stateMutability": "view",
      "type": "function"
    },
    {
      "constant": true,
      "inputs": [],
      "name": "fundingGoal",
      "outputs": [
        {
          "name": "",
          "type": "uint256"
        }
      ],
      "payable": false,
      "stateMutability": "view",
      "type": "function"
    },
    {
      "constant": true,
      "inputs": [],
      "name": "amountRaised",
      "outputs": [
        {
          "name": "",
          "type": "uint256"
        }
      ],
      "payable": false,
      "stateMutability": "view",
      "type": "function"
    },
    {
      "constant": true,
      "inputs": [],
      "name": "price",
      "outputs": [
        {
          "name": "",
          "type": "uint256"
        }
      ],
      "payable": false,
      "stateMutability": "view",
      "type": "function"
    },
    {
      "constant": true,
      "inputs": [],
      "name": "crowdsaleClosed",
      "outputs": [
        {
          "name": "",
          "type": "bool"
        }
      ],
      "payable": false,
      "stateMutability": "view",
      "type": "function"
    },
    {
      "constant": true,
      "inputs": [],
      "name": "fundingGoalReached",
      "outputs": [
        {
          "name": "",
          "type": "bool"
        }
      ],
      "payable": false,
      "stateMutability": "view",
      "type": "function"
    },
    {
      "inputs": [
        {
          "name": "ifSuccessfulSendTo",
          "type": "address"
        },
        {
          "name": "fundingGoalInEthers",
          "type": "uint256"
        },
        {
          "name": "durationInMinutes",
          "type": "uint256"
        },
        {
          "name": "etherCostOfEachToken",
          "type": "uint256"
        },
        {
          "name": "addressOfTokenUsedAsReward",
          "type": "address"
        }
      ],
      "payable": false,
      "stateMutability": "nonpayable",
      "type": "constructor"
    },
    {
      "payable": true,
      "stateMutability": "payable",
      "type": "fallback"
    },
    {
      "anonymous": false,
      "inputs": [
        {
          "indexed": false,
          "name": "beneficiaryAddress",
          "type": "address"
        },
        {
          "indexed": false,
          "name": "amountRaisedValue",
          "type": "uint256"
        }
      ],
      "name": "GoalReached",
      "type": "event"
    },
    {
      "anonymous": false,
      "inputs": [
        {
          "indexed": false,
          "name": "backer",
          "type": "address"
        },
        {
          "indexed": false,
          "name": "amount",
          "type": "uint256"
        },
        {
          "indexed": false,
          "name": "isContribution",
          "type": "bool"
        }
      ],
      "name": "FundTransfer",
      "type": "event"
    },
    {
      "constant": false,
      "inputs": [],
      "name": "checkGoalReached",
      "outputs": [],
      "payable": false,
      "stateMutability": "nonpayable",
      "type": "function"
    },
    {
      "constant": false,
      "inputs": [],
      "name": "safeWithdrawal",
      "outputs": [],
      "payable": false,
      "stateMutability": "nonpayable",
      "type": "function"
    }
  ],
  "bytecode": "0x60806040526000600760006101000a81548160ff0219169083151502179055506000600760016101000a81548160ff02191690831515021790555034801561004657600080fd5b5060405160a080610b0c8339810180604052810190808051906020019092919080519060200190929190805190602001909291908051906020019092919080519060200190929190505050846000806101000a81548173ffffffffffffffffffffffffffffffffffffffff021916908373ffffffffffffffffffffffffffffffffffffffff160217905550670de0b6b3a76400008402600181905550603c83024201600381905550670de0b6b3a7640000820260048190555080600560006101000a81548173ffffffffffffffffffffffffffffffffffffffff021916908373ffffffffffffffffffffffffffffffffffffffff16021790555050505050506109b8806101546000396000f3006080604052600436106100af576000357c0100000000000000000000000000000000000000000000000000000000900463ffffffff16806301cb3b201461029257806329dcb0cf146102a957806338af3eed146102d45780636e66f6e91461032b57806370a08231146103825780637a3a0e84146103d95780637b3e5e7b14610404578063a035b1fe1461042f578063ccb07cef1461045a578063d424f62814610489578063fd6b7ef8146104b8575b6000600760019054906101000a900460ff161515156100cd57600080fd5b34905080600660003373ffffffffffffffffffffffffffffffffffffffff1673ffffffffffffffffffffffffffffffffffffffff1681526020019081526020016000206000828254019250508190555080600260008282540192505081905550600560009054906101000a900473ffffffffffffffffffffffffffffffffffffffff1673ffffffffffffffffffffffffffffffffffffffff1663a9059cbb336004548481151561017957fe5b046040518363ffffffff167c0100000000000000000000000000000000000000000000000000000000028152600401808373ffffffffffffffffffffffffffffffffffffffff1673ffffffffffffffffffffffffffffffffffffffff16815260200182815260200192505050600060405180830381600087803b1580156101ff57600080fd5b505af1158015610213573d6000803e3d6000fd5b505050507fe842aea7a5f1b01049d752008c53c52890b1a6daf660cf39e8eec506112bbdf633826001604051808473ffffffffffffffffffffffffffffffffffffffff1673ffffffffffffffffffffffffffffffffffffffff16815260200183815260200182151515158152602001935050505060405180910390a150005b34801561029e57600080fd5b506102a76104cf565b005b3480156102b557600080fd5b506102be6105af565b6040518082815260200191505060405180910390f35b3480156102e057600080fd5b506102e96105b5565b604051808273ffffffffffffffffffffffffffffffffffffffff1673ffffffffffffffffffffffffffffffffffffffff16815260200191505060405180910390f35b34801561033757600080fd5b506103406105da565b604051808273ffffffffffffffffffffffffffffffffffffffff1673ffffffffffffffffffffffffffffffffffffffff16815260200191505060405180910390f35b34801561038e57600080fd5b506103c3600480360381019080803573ffffffffffffffffffffffffffffffffffffffff169060200190929190505050610600565b6040518082815260200191505060405180910390f35b3480156103e557600080fd5b506103ee610618565b6040518082815260200191505060405180910390f35b34801561041057600080fd5b5061041961061e565b6040518082815260200191505060405180910390f35b34801561043b57600080fd5b50610444610624565b6040518082815260200191505060405180910390f35b34801561046657600080fd5b5061046f61062a565b604051808215151515815260200191505060405180910390f35b34801561049557600080fd5b5061049e61063d565b604051808215151515815260200191505060405180910390f35b3480156104c457600080fd5b506104cd610650565b005b600354421015156105ad57600154600254101515610591576001600760006101000a81548160ff0219169083151502179055507fec3f991caf7857d61663fd1bba1739e04abd4781238508cde554bb849d790c856000809054906101000a900473ffffffffffffffffffffffffffffffffffffffff16600254604051808373ffffffffffffffffffffffffffffffffffffffff1673ffffffffffffffffffffffffffffffffffffffff1681526020018281526020019250505060405180910390a15b6001600760016101000a81548160ff0219169083151502179055505b565b60035481565b6000809054906101000a900473ffffffffffffffffffffffffffffffffffffffff1681565b600560009054906101000a900473ffffffffffffffffffffffffffffffffffffffff1681565b60066020528060005260406000206000915090505481565b60015481565b60025481565b60045481565b600760019054906101000a900460ff1681565b600760009054906101000a900460ff1681565b60006003544210151561098957600760009054906101000a900460ff16151561080157600660003373ffffffffffffffffffffffffffffffffffffffff1673ffffffffffffffffffffffffffffffffffffffff1681526020019081526020016000205490506000600660003373ffffffffffffffffffffffffffffffffffffffff1673ffffffffffffffffffffffffffffffffffffffff168152602001908152602001600020819055506000811115610800573373ffffffffffffffffffffffffffffffffffffffff166108fc829081150290604051600060405180830381858888f19350505050156107ba577fe842aea7a5f1b01049d752008c53c52890b1a6daf660cf39e8eec506112bbdf633826000604051808473ffffffffffffffffffffffffffffffffffffffff1673ffffffffffffffffffffffffffffffffffffffff16815260200183815260200182151515158152602001935050505060405180910390a16107ff565b80600660003373ffffffffffffffffffffffffffffffffffffffff1673ffffffffffffffffffffffffffffffffffffffff168152602001908152602001600020819055505b5b5b600760009054906101000a900460ff16801561086957503373ffffffffffffffffffffffffffffffffffffffff166000809054906101000a900473ffffffffffffffffffffffffffffffffffffffff1673ffffffffffffffffffffffffffffffffffffffff16145b15610988576000809054906101000a900473ffffffffffffffffffffffffffffffffffffffff1673ffffffffffffffffffffffffffffffffffffffff166108fc6002549081150290604051600060405180830381858888f193505050501561096b577fe842aea7a5f1b01049d752008c53c52890b1a6daf660cf39e8eec506112bbdf66000809054906101000a900473ffffffffffffffffffffffffffffffffffffffff166002546000604051808473ffffffffffffffffffffffffffffffffffffffff1673ffffffffffffffffffffffffffffffffffffffff16815260200183815260200182151515158152602001935050505060405180910390a1610987565b6000600760006101000a81548160ff0219169083151502179055505b5b5b505600a165627a7a7230582075e60704c57d9cbb38eff2bc093949834816a483181d5a0638bb62e598055ba00029",
  "source": "pragma solidity ^0.4.16;\r\n\r\ninterface token {\r\n    function transfer(address receiver, uint amount);\r\n}\r\n\r\ncontract newCrowdFund {\r\n    address public beneficiary;\r\n    uint public fundingGoal;\r\n    uint public amountRaised;\r\n    uint public deadline;\r\n    uint public price;\r\n    token public tokenReward;\r\n   \r\n    mapping(address => uint256) public balanceOf;\r\n    bool public fundingGoalReached = false;\r\n    bool public crowdsaleClosed = false;\r\n\r\n    event GoalReached(address beneficiaryAddress, uint amountRaisedValue);\r\n    event FundTransfer(address backer, uint amount, bool isContribution);\r\n\r\n\r\n    function newCrowdFund(\r\n        address ifSuccessfulSendTo, //펀딩 성공시 모금액이 송금될 계정\r\n        uint fundingGoalInEthers, //펀딩 목표 금액 (이더)\r\n        uint durationInMinutes, //펀딩이 진행될 기간 (분)\r\n        uint etherCostOfEachToken, //이더와 토큰의 교환 비율\r\n        address addressOfTokenUsedAsReward //보상으로 제공될 토큰의 주소값\r\n    ) public {\r\n        beneficiary = ifSuccessfulSendTo; //잔금\r\n        fundingGoal = fundingGoalInEthers * 1 ether; \r\n        deadline = now + durationInMinutes * 1 minutes;\r\n        price = etherCostOfEachToken * 1 ether;\r\n        tokenReward = token(addressOfTokenUsedAsReward);\r\n    }\r\n\r\n    function () payable {\r\n        require(!crowdsaleClosed);\r\n        uint amount = msg.value;\r\n        balanceOf[msg.sender] += amount;\r\n        amountRaised += amount;\r\n        tokenReward.transfer(msg.sender, amount / price);\r\n        FundTransfer(msg.sender, amount, true);\r\n    }\r\n\r\n    modifier afterDeadline() { if (now >= deadline) _; }\r\n   \r\n    function checkGoalReached() afterDeadline { //펀딩기간 지나면 목표 달성했는지 확인 \r\n        if (amountRaised >= fundingGoal){\r\n            fundingGoalReached = true;\r\n            GoalReached(beneficiary, amountRaised);\r\n        }\r\n        crowdsaleClosed = true;\r\n    }\r\n\r\n    function safeWithdrawal() afterDeadline { //목표 달성 실패시 환불\r\n        if (!fundingGoalReached) {\r\n            uint amount = balanceOf[msg.sender];\r\n            balanceOf[msg.sender] = 0;\r\n            if (amount > 0) {\r\n                if (msg.sender.send(amount)) {\r\n                    FundTransfer(msg.sender, amount, false);\r\n                } else {\r\n                    balanceOf[msg.sender] = amount;\r\n                }\r\n            }\r\n        }\r\n        if (fundingGoalReached && beneficiary == msg.sender) {\r\n            if (beneficiary.send(amountRaised)) {\r\n                FundTransfer(beneficiary, amountRaised, false);\r\n            } else {\r\n                fundingGoalReached = false;\r\n            }\r\n        }\r\n    }\r\n}",
  "sourcePath": "C:/Users/yun/source/repos/2021-1-OSSP1-powerG-7/app/contracts/newCrowdFund.sol",
  "compiler": {
    "name": "solc",
    "version": "0.4.26+commit.4563c3fc.Emscripten.clang"
  },
  "schemaVersion": "3.4.1",
  "updatedAt": "2021-06-10T03:23:38.000Z",
  "networkType": "ethereum",
  "devdoc": {
    "methods": {}
  },
  "userdoc": {
    "methods": {}
  }
}